{
  "_format": "hh-sol-artifact-1",
  "contractName": "SheeshEyeNFT",
  "sourceName": "contracts/SheeshEyeNFT.sol",
  "abi": [
    {
      "inputs": [
        {
          "internalType": "string",
          "name": "_name",
          "type": "string"
        },
        {
          "internalType": "string",
          "name": "_symbol",
          "type": "string"
        },
        {
          "internalType": "string",
          "name": "_initBaseURI",
          "type": "string"
        },
        {
          "internalType": "string",
          "name": "_initNotRevealedURI",
          "type": "string"
        }
      ],
      "stateMutability": "nonpayable",
      "type": "constructor"
    },
    {
      "anonymous": false,
      "inputs": [
        {
          "indexed": true,
          "internalType": "address",
          "name": "owner",
          "type": "address"
        },
        {
          "indexed": true,
          "internalType": "address",
          "name": "approved",
          "type": "address"
        },
        {
          "indexed": true,
          "internalType": "uint256",
          "name": "tokenId",
          "type": "uint256"
        }
      ],
      "name": "Approval",
      "type": "event"
    },
    {
      "anonymous": false,
      "inputs": [
        {
          "indexed": true,
          "internalType": "address",
          "name": "owner",
          "type": "address"
        },
        {
          "indexed": true,
          "internalType": "address",
          "name": "operator",
          "type": "address"
        },
        {
          "indexed": false,
          "internalType": "bool",
          "name": "approved",
          "type": "bool"
        }
      ],
      "name": "ApprovalForAll",
      "type": "event"
    },
    {
      "anonymous": false,
      "inputs": [
        {
          "indexed": true,
          "internalType": "address",
          "name": "previousOwner",
          "type": "address"
        },
        {
          "indexed": true,
          "internalType": "address",
          "name": "newOwner",
          "type": "address"
        }
      ],
      "name": "OwnershipTransferred",
      "type": "event"
    },
    {
      "anonymous": false,
      "inputs": [
        {
          "indexed": true,
          "internalType": "address",
          "name": "from",
          "type": "address"
        },
        {
          "indexed": true,
          "internalType": "address",
          "name": "to",
          "type": "address"
        },
        {
          "indexed": true,
          "internalType": "uint256",
          "name": "tokenId",
          "type": "uint256"
        }
      ],
      "name": "Transfer",
      "type": "event"
    },
    {
      "inputs": [
        {
          "internalType": "address",
          "name": "to",
          "type": "address"
        },
        {
          "internalType": "uint256",
          "name": "tokenId",
          "type": "uint256"
        }
      ],
      "name": "approve",
      "outputs": [],
      "stateMutability": "nonpayable",
      "type": "function"
    },
    {
      "inputs": [
        {
          "internalType": "address",
          "name": "owner",
          "type": "address"
        }
      ],
      "name": "balanceOf",
      "outputs": [
        {
          "internalType": "uint256",
          "name": "",
          "type": "uint256"
        }
      ],
      "stateMutability": "view",
      "type": "function"
    },
    {
      "inputs": [],
      "name": "baseExtension",
      "outputs": [
        {
          "internalType": "string",
          "name": "",
          "type": "string"
        }
      ],
      "stateMutability": "view",
      "type": "function"
    },
    {
      "inputs": [],
      "name": "cost",
      "outputs": [
        {
          "internalType": "uint256",
          "name": "",
          "type": "uint256"
        }
      ],
      "stateMutability": "view",
      "type": "function"
    },
    {
      "inputs": [
        {
          "internalType": "uint256",
          "name": "tokenId",
          "type": "uint256"
        }
      ],
      "name": "getApproved",
      "outputs": [
        {
          "internalType": "address",
          "name": "",
          "type": "address"
        }
      ],
      "stateMutability": "view",
      "type": "function"
    },
    {
      "inputs": [
        {
          "internalType": "address",
          "name": "owner",
          "type": "address"
        },
        {
          "internalType": "address",
          "name": "operator",
          "type": "address"
        }
      ],
      "name": "isApprovedForAll",
      "outputs": [
        {
          "internalType": "bool",
          "name": "",
          "type": "bool"
        }
      ],
      "stateMutability": "view",
      "type": "function"
    },
    {
      "inputs": [],
      "name": "maxMintAmount",
      "outputs": [
        {
          "internalType": "uint256",
          "name": "",
          "type": "uint256"
        }
      ],
      "stateMutability": "view",
      "type": "function"
    },
    {
      "inputs": [],
      "name": "maxSupply",
      "outputs": [
        {
          "internalType": "uint256",
          "name": "",
          "type": "uint256"
        }
      ],
      "stateMutability": "view",
      "type": "function"
    },
    {
      "inputs": [
        {
          "internalType": "uint256",
          "name": "_mintAmount",
          "type": "uint256"
        }
      ],
      "name": "mint",
      "outputs": [],
      "stateMutability": "payable",
      "type": "function"
    },
    {
      "inputs": [],
      "name": "name",
      "outputs": [
        {
          "internalType": "string",
          "name": "",
          "type": "string"
        }
      ],
      "stateMutability": "view",
      "type": "function"
    },
    {
      "inputs": [],
      "name": "notRevealedUri",
      "outputs": [
        {
          "internalType": "string",
          "name": "",
          "type": "string"
        }
      ],
      "stateMutability": "view",
      "type": "function"
    },
    {
      "inputs": [],
      "name": "owner",
      "outputs": [
        {
          "internalType": "address",
          "name": "",
          "type": "address"
        }
      ],
      "stateMutability": "view",
      "type": "function"
    },
    {
      "inputs": [
        {
          "internalType": "uint256",
          "name": "tokenId",
          "type": "uint256"
        }
      ],
      "name": "ownerOf",
      "outputs": [
        {
          "internalType": "address",
          "name": "",
          "type": "address"
        }
      ],
      "stateMutability": "view",
      "type": "function"
    },
    {
      "inputs": [
        {
          "internalType": "bool",
          "name": "_state",
          "type": "bool"
        }
      ],
      "name": "pause",
      "outputs": [],
      "stateMutability": "nonpayable",
      "type": "function"
    },
    {
      "inputs": [],
      "name": "paused",
      "outputs": [
        {
          "internalType": "bool",
          "name": "",
          "type": "bool"
        }
      ],
      "stateMutability": "view",
      "type": "function"
    },
    {
      "inputs": [],
      "name": "renounceOwnership",
      "outputs": [],
      "stateMutability": "nonpayable",
      "type": "function"
    },
    {
      "inputs": [
        {
          "internalType": "bool",
          "name": "_revealed",
          "type": "bool"
        }
      ],
      "name": "reveal",
      "outputs": [],
      "stateMutability": "nonpayable",
      "type": "function"
    },
    {
      "inputs": [],
      "name": "revealed",
      "outputs": [
        {
          "internalType": "bool",
          "name": "",
          "type": "bool"
        }
      ],
      "stateMutability": "view",
      "type": "function"
    },
    {
      "inputs": [
        {
          "internalType": "address",
          "name": "from",
          "type": "address"
        },
        {
          "internalType": "address",
          "name": "to",
          "type": "address"
        },
        {
          "internalType": "uint256",
          "name": "tokenId",
          "type": "uint256"
        }
      ],
      "name": "safeTransferFrom",
      "outputs": [],
      "stateMutability": "nonpayable",
      "type": "function"
    },
    {
      "inputs": [
        {
          "internalType": "address",
          "name": "from",
          "type": "address"
        },
        {
          "internalType": "address",
          "name": "to",
          "type": "address"
        },
        {
          "internalType": "uint256",
          "name": "tokenId",
          "type": "uint256"
        },
        {
          "internalType": "bytes",
          "name": "_data",
          "type": "bytes"
        }
      ],
      "name": "safeTransferFrom",
      "outputs": [],
      "stateMutability": "nonpayable",
      "type": "function"
    },
    {
      "inputs": [
        {
          "internalType": "address",
          "name": "operator",
          "type": "address"
        },
        {
          "internalType": "bool",
          "name": "approved",
          "type": "bool"
        }
      ],
      "name": "setApprovalForAll",
      "outputs": [],
      "stateMutability": "nonpayable",
      "type": "function"
    },
    {
      "inputs": [
        {
          "internalType": "string",
          "name": "_newBaseExtension",
          "type": "string"
        }
      ],
      "name": "setBaseExtension",
      "outputs": [],
      "stateMutability": "nonpayable",
      "type": "function"
    },
    {
      "inputs": [
        {
          "internalType": "string",
          "name": "_newBaseURI",
          "type": "string"
        }
      ],
      "name": "setBaseURI",
      "outputs": [],
      "stateMutability": "nonpayable",
      "type": "function"
    },
    {
      "inputs": [
        {
          "internalType": "uint256",
          "name": "_newCost",
          "type": "uint256"
        }
      ],
      "name": "setCost",
      "outputs": [],
      "stateMutability": "nonpayable",
      "type": "function"
    },
    {
      "inputs": [
        {
          "internalType": "string",
          "name": "_notRevealedURI",
          "type": "string"
        }
      ],
      "name": "setNotRevealedURI",
      "outputs": [],
      "stateMutability": "nonpayable",
      "type": "function"
    },
    {
      "inputs": [
        {
          "internalType": "uint256",
          "name": "_newmaxMintAmount",
          "type": "uint256"
        }
      ],
      "name": "setmaxMintAmount",
      "outputs": [],
      "stateMutability": "nonpayable",
      "type": "function"
    },
    {
      "inputs": [
        {
          "internalType": "bytes4",
          "name": "interfaceId",
          "type": "bytes4"
        }
      ],
      "name": "supportsInterface",
      "outputs": [
        {
          "internalType": "bool",
          "name": "",
          "type": "bool"
        }
      ],
      "stateMutability": "view",
      "type": "function"
    },
    {
      "inputs": [],
      "name": "symbol",
      "outputs": [
        {
          "internalType": "string",
          "name": "",
          "type": "string"
        }
      ],
      "stateMutability": "view",
      "type": "function"
    },
    {
      "inputs": [
        {
          "internalType": "uint256",
          "name": "index",
          "type": "uint256"
        }
      ],
      "name": "tokenByIndex",
      "outputs": [
        {
          "internalType": "uint256",
          "name": "",
          "type": "uint256"
        }
      ],
      "stateMutability": "view",
      "type": "function"
    },
    {
      "inputs": [
        {
          "internalType": "address",
          "name": "owner",
          "type": "address"
        },
        {
          "internalType": "uint256",
          "name": "index",
          "type": "uint256"
        }
      ],
      "name": "tokenOfOwnerByIndex",
      "outputs": [
        {
          "internalType": "uint256",
          "name": "",
          "type": "uint256"
        }
      ],
      "stateMutability": "view",
      "type": "function"
    },
    {
      "inputs": [
        {
          "internalType": "uint256",
          "name": "tokenId",
          "type": "uint256"
        }
      ],
      "name": "tokenURI",
      "outputs": [
        {
          "internalType": "string",
          "name": "",
          "type": "string"
        }
      ],
      "stateMutability": "view",
      "type": "function"
    },
    {
      "inputs": [],
      "name": "totalSupply",
      "outputs": [
        {
          "internalType": "uint256",
          "name": "",
          "type": "uint256"
        }
      ],
      "stateMutability": "view",
      "type": "function"
    },
    {
      "inputs": [
        {
          "internalType": "address",
          "name": "from",
          "type": "address"
        },
        {
          "internalType": "address",
          "name": "to",
          "type": "address"
        },
        {
          "internalType": "uint256",
          "name": "tokenId",
          "type": "uint256"
        }
      ],
      "name": "transferFrom",
      "outputs": [],
      "stateMutability": "nonpayable",
      "type": "function"
    },
    {
      "inputs": [
        {
          "internalType": "address",
          "name": "newOwner",
          "type": "address"
        }
      ],
      "name": "transferOwnership",
      "outputs": [],
      "stateMutability": "nonpayable",
      "type": "function"
    },
    {
      "inputs": [
        {
          "internalType": "address",
          "name": "_owner",
          "type": "address"
        }
      ],
      "name": "walletOfOwner",
      "outputs": [
        {
          "internalType": "uint256[]",
          "name": "",
          "type": "uint256[]"
        }
      ],
      "stateMutability": "view",
      "type": "function"
    },
    {
      "inputs": [],
      "name": "withdraw",
      "outputs": [],
      "stateMutability": "payable",
      "type": "function"
    }
  ],
  "bytecode": "0x60806040526040518060400160405280600581526020017f2e6a736f6e000000000000000000000000000000000000000000000000000000815250600d908051906020019062000051929190620003a1565b5066b1a2bc2ec50000600e55612710600f5560026010556000601160006101000a81548160ff0219169083151502179055506000601160016101000a81548160ff021916908315150217905550348015620000ab57600080fd5b5060405162004f7038038062004f708339818101604052810190620000d19190620004c3565b83838160009080519060200190620000eb929190620003a1565b50806001908051906020019062000104929190620003a1565b505050620001276200011b6200015360201b60201c565b6200015b60201b60201c565b62000138826200022160201b60201c565b6200014981620002cc60201b60201c565b5050505062000786565b600033905090565b6000600a60009054906101000a900473ffffffffffffffffffffffffffffffffffffffff16905081600a60006101000a81548173ffffffffffffffffffffffffffffffffffffffff021916908373ffffffffffffffffffffffffffffffffffffffff1602179055508173ffffffffffffffffffffffffffffffffffffffff168173ffffffffffffffffffffffffffffffffffffffff167f8be0079c531659141344cd1fd0a4f28419497f9722a3daafe3b4186f6b6457e060405160405180910390a35050565b620002316200015360201b60201c565b73ffffffffffffffffffffffffffffffffffffffff16620002576200037760201b60201c565b73ffffffffffffffffffffffffffffffffffffffff1614620002b0576040517f08c379a0000000000000000000000000000000000000000000000000000000008152600401620002a790620005ba565b60405180910390fd5b80600b9080519060200190620002c8929190620003a1565b5050565b620002dc6200015360201b60201c565b73ffffffffffffffffffffffffffffffffffffffff16620003026200037760201b60201c565b73ffffffffffffffffffffffffffffffffffffffff16146200035b576040517f08c379a00000000000000000000000000000000000000000000000000000000081526004016200035290620005ba565b60405180910390fd5b80600c908051906020019062000373929190620003a1565b5050565b6000600a60009054906101000a900473ffffffffffffffffffffffffffffffffffffffff16905090565b828054620003af9062000682565b90600052602060002090601f016020900481019282620003d357600085556200041f565b82601f10620003ee57805160ff19168380011785556200041f565b828001600101855582156200041f579182015b828111156200041e57825182559160200191906001019062000401565b5b5090506200042e919062000432565b5090565b5b808211156200044d57600081600090555060010162000433565b5090565b600062000468620004628462000605565b620005dc565b9050828152602081018484840111156200048157600080fd5b6200048e8482856200064c565b509392505050565b600082601f830112620004a857600080fd5b8151620004ba84826020860162000451565b91505092915050565b60008060008060808587031215620004da57600080fd5b600085015167ffffffffffffffff811115620004f557600080fd5b620005038782880162000496565b945050602085015167ffffffffffffffff8111156200052157600080fd5b6200052f8782880162000496565b935050604085015167ffffffffffffffff8111156200054d57600080fd5b6200055b8782880162000496565b925050606085015167ffffffffffffffff8111156200057957600080fd5b620005878782880162000496565b91505092959194509250565b6000620005a26020836200063b565b9150620005af826200075d565b602082019050919050565b60006020820190508181036000830152620005d58162000593565b9050919050565b6000620005e8620005fb565b9050620005f68282620006b8565b919050565b6000604051905090565b600067ffffffffffffffff8211156200062357620006226200071d565b5b6200062e826200074c565b9050602081019050919050565b600082825260208201905092915050565b60005b838110156200066c5780820151818401526020810190506200064f565b838111156200067c576000848401525b50505050565b600060028204905060018216806200069b57607f821691505b60208210811415620006b257620006b1620006ee565b5b50919050565b620006c3826200074c565b810181811067ffffffffffffffff82111715620006e557620006e46200071d565b5b80604052505050565b7f4e487b7100000000000000000000000000000000000000000000000000000000600052602260045260246000fd5b7f4e487b7100000000000000000000000000000000000000000000000000000000600052604160045260246000fd5b6000601f19601f8301169050919050565b7f4f776e61626c653a2063616c6c6572206973206e6f7420746865206f776e6572600082015250565b6147da80620007966000396000f3fe60806040526004361061020f5760003560e01c80635c975abb11610118578063a22cb465116100a0578063d5abeb011161006f578063d5abeb0114610781578063da3ef23f146107ac578063e985e9c5146107d5578063f2c4ce1e14610812578063f2fde38b1461083b5761020f565b8063a22cb465146106c7578063b88d4fde146106f0578063c668286214610719578063c87b56dd146107445761020f565b80637f00c7a6116100e75780637f00c7a6146106035780638da5cb5b1461062c578063940cd05b1461065757806395d89b4114610680578063a0712d68146106ab5761020f565b80635c975abb146105475780636352211e1461057257806370a08231146105af578063715018a6146105ec5761020f565b806323b872dd1161019b578063438b63001161016a578063438b63001461045057806344a0d68a1461048d5780634f6ccce7146104b657806351830227146104f357806355f804b31461051e5761020f565b806323b872dd146103b75780632f745c59146103e05780633ccfd60b1461041d57806342842e0e146104275761020f565b8063081c8c44116101e2578063081c8c44146102e2578063095ea7b31461030d57806313faede61461033657806318160ddd14610361578063239c70ae1461038c5761020f565b806301ffc9a71461021457806302329a291461025157806306fdde031461027a578063081812fc146102a5575b600080fd5b34801561022057600080fd5b5061023b600480360381019061023691906133bd565b610864565b6040516102489190613a1e565b60405180910390f35b34801561025d57600080fd5b5061027860048036038101906102739190613394565b6108de565b005b34801561028657600080fd5b5061028f610977565b60405161029c9190613a39565b60405180910390f35b3480156102b157600080fd5b506102cc60048036038101906102c79190613450565b610a09565b6040516102d99190613995565b60405180910390f35b3480156102ee57600080fd5b506102f7610a8e565b6040516103049190613a39565b60405180910390f35b34801561031957600080fd5b50610334600480360381019061032f9190613358565b610b1c565b005b34801561034257600080fd5b5061034b610c34565b6040516103589190613cfb565b60405180910390f35b34801561036d57600080fd5b50610376610c3a565b6040516103839190613cfb565b60405180910390f35b34801561039857600080fd5b506103a1610c47565b6040516103ae9190613cfb565b60405180910390f35b3480156103c357600080fd5b506103de60048036038101906103d99190613252565b610c4d565b005b3480156103ec57600080fd5b5061040760048036038101906104029190613358565b610cad565b6040516104149190613cfb565b60405180910390f35b610425610d52565b005b34801561043357600080fd5b5061044e60048036038101906104499190613252565b610e4e565b005b34801561045c57600080fd5b50610477600480360381019061047291906131ed565b610e6e565b60405161048491906139fc565b60405180910390f35b34801561049957600080fd5b506104b460048036038101906104af9190613450565b610f68565b005b3480156104c257600080fd5b506104dd60048036038101906104d89190613450565b610fee565b6040516104ea9190613cfb565b60405180910390f35b3480156104ff57600080fd5b50610508611085565b6040516105159190613a1e565b60405180910390f35b34801561052a57600080fd5b506105456004803603810190610540919061340f565b611098565b005b34801561055357600080fd5b5061055c61112e565b6040516105699190613a1e565b60405180910390f35b34801561057e57600080fd5b5061059960048036038101906105949190613450565b611141565b6040516105a69190613995565b60405180910390f35b3480156105bb57600080fd5b506105d660048036038101906105d191906131ed565b6111f3565b6040516105e39190613cfb565b60405180910390f35b3480156105f857600080fd5b506106016112ab565b005b34801561060f57600080fd5b5061062a60048036038101906106259190613450565b611333565b005b34801561063857600080fd5b506106416113b9565b60405161064e9190613995565b60405180910390f35b34801561066357600080fd5b5061067e60048036038101906106799190613394565b6113e3565b005b34801561068c57600080fd5b5061069561147c565b6040516106a29190613a39565b60405180910390f35b6106c560048036038101906106c09190613450565b61150e565b005b3480156106d357600080fd5b506106ee60048036038101906106e9919061331c565b61169c565b005b3480156106fc57600080fd5b50610717600480360381019061071291906132a1565b6116b2565b005b34801561072557600080fd5b5061072e611714565b60405161073b9190613a39565b60405180910390f35b34801561075057600080fd5b5061076b60048036038101906107669190613450565b6117a2565b6040516107789190613a39565b60405180910390f35b34801561078d57600080fd5b506107966118fb565b6040516107a39190613cfb565b60405180910390f35b3480156107b857600080fd5b506107d360048036038101906107ce919061340f565b611901565b005b3480156107e157600080fd5b506107fc60048036038101906107f79190613216565b611997565b6040516108099190613a1e565b60405180910390f35b34801561081e57600080fd5b506108396004803603810190610834919061340f565b611a2b565b005b34801561084757600080fd5b50610862600480360381019061085d91906131ed565b611ac1565b005b60007f780e9d63000000000000000000000000000000000000000000000000000000007bffffffffffffffffffffffffffffffffffffffffffffffffffffffff1916827bffffffffffffffffffffffffffffffffffffffffffffffffffffffff191614806108d757506108d682611bb9565b5b9050919050565b6108e6611c9b565b73ffffffffffffffffffffffffffffffffffffffff166109046113b9565b73ffffffffffffffffffffffffffffffffffffffff161461095a576040517f08c379a000000000000000000000000000000000000000000000000000000000815260040161095190613c3b565b60405180910390fd5b80601160006101000a81548160ff02191690831515021790555050565b60606000805461098690614004565b80601f01602080910402602001604051908101604052809291908181526020018280546109b290614004565b80156109ff5780601f106109d4576101008083540402835291602001916109ff565b820191906000526020600020905b8154815290600101906020018083116109e257829003601f168201915b5050505050905090565b6000610a1482611ca3565b610a53576040517f08c379a0000000000000000000000000000000000000000000000000000000008152600401610a4a90613c1b565b60405180910390fd5b6004600083815260200190815260200160002060009054906101000a900473ffffffffffffffffffffffffffffffffffffffff169050919050565b600c8054610a9b90614004565b80601f0160208091040260200160405190810160405280929190818152602001828054610ac790614004565b8015610b145780601f10610ae957610100808354040283529160200191610b14565b820191906000526020600020905b815481529060010190602001808311610af757829003601f168201915b505050505081565b6000610b2782611141565b90508073ffffffffffffffffffffffffffffffffffffffff168373ffffffffffffffffffffffffffffffffffffffff161415610b98576040517f08c379a0000000000000000000000000000000000000000000000000000000008152600401610b8f90613c9b565b60405180910390fd5b8073ffffffffffffffffffffffffffffffffffffffff16610bb7611c9b565b73ffffffffffffffffffffffffffffffffffffffff161480610be65750610be581610be0611c9b565b611997565b5b610c25576040517f08c379a0000000000000000000000000000000000000000000000000000000008152600401610c1c90613b9b565b60405180910390fd5b610c2f8383611d0f565b505050565b600e5481565b6000600880549050905090565b60105481565b610c5e610c58611c9b565b82611dc8565b610c9d576040517f08c379a0000000000000000000000000000000000000000000000000000000008152600401610c9490613cbb565b60405180910390fd5b610ca8838383611ea6565b505050565b6000610cb8836111f3565b8210610cf9576040517f08c379a0000000000000000000000000000000000000000000000000000000008152600401610cf090613a5b565b60405180910390fd5b600660008473ffffffffffffffffffffffffffffffffffffffff1673ffffffffffffffffffffffffffffffffffffffff168152602001908152602001600020600083815260200190815260200160002054905092915050565b610d5a611c9b565b73ffffffffffffffffffffffffffffffffffffffff16610d786113b9565b73ffffffffffffffffffffffffffffffffffffffff1614610dce576040517f08c379a0000000000000000000000000000000000000000000000000000000008152600401610dc590613c3b565b60405180910390fd5b6000610dd86113b9565b73ffffffffffffffffffffffffffffffffffffffff1647604051610dfb90613980565b60006040518083038185875af1925050503d8060008114610e38576040519150601f19603f3d011682016040523d82523d6000602084013e610e3d565b606091505b5050905080610e4b57600080fd5b50565b610e69838383604051806020016040528060008152506116b2565b505050565b60606000610e7b836111f3565b905060008167ffffffffffffffff811115610ebf577f4e487b7100000000000000000000000000000000000000000000000000000000600052604160045260246000fd5b604051908082528060200260200182016040528015610eed5781602001602082028036833780820191505090505b50905060005b82811015610f5d57610f058582610cad565b828281518110610f3e577f4e487b7100000000000000000000000000000000000000000000000000000000600052603260045260246000fd5b6020026020010181815250508080610f5590614067565b915050610ef3565b508092505050919050565b610f70611c9b565b73ffffffffffffffffffffffffffffffffffffffff16610f8e6113b9565b73ffffffffffffffffffffffffffffffffffffffff1614610fe4576040517f08c379a0000000000000000000000000000000000000000000000000000000008152600401610fdb90613c3b565b60405180910390fd5b80600e8190555050565b6000610ff8610c3a565b8210611039576040517f08c379a000000000000000000000000000000000000000000000000000000000815260040161103090613cdb565b60405180910390fd5b60088281548110611073577f4e487b7100000000000000000000000000000000000000000000000000000000600052603260045260246000fd5b90600052602060002001549050919050565b601160019054906101000a900460ff1681565b6110a0611c9b565b73ffffffffffffffffffffffffffffffffffffffff166110be6113b9565b73ffffffffffffffffffffffffffffffffffffffff1614611114576040517f08c379a000000000000000000000000000000000000000000000000000000000815260040161110b90613c3b565b60405180910390fd5b80600b908051906020019061112a929190613011565b5050565b601160009054906101000a900460ff1681565b6000806002600084815260200190815260200160002060009054906101000a900473ffffffffffffffffffffffffffffffffffffffff169050600073ffffffffffffffffffffffffffffffffffffffff168173ffffffffffffffffffffffffffffffffffffffff1614156111ea576040517f08c379a00000000000000000000000000000000000000000000000000000000081526004016111e190613bdb565b60405180910390fd5b80915050919050565b60008073ffffffffffffffffffffffffffffffffffffffff168273ffffffffffffffffffffffffffffffffffffffff161415611264576040517f08c379a000000000000000000000000000000000000000000000000000000000815260040161125b90613bbb565b60405180910390fd5b600360008373ffffffffffffffffffffffffffffffffffffffff1673ffffffffffffffffffffffffffffffffffffffff168152602001908152602001600020549050919050565b6112b3611c9b565b73ffffffffffffffffffffffffffffffffffffffff166112d16113b9565b73ffffffffffffffffffffffffffffffffffffffff1614611327576040517f08c379a000000000000000000000000000000000000000000000000000000000815260040161131e90613c3b565b60405180910390fd5b6113316000612102565b565b61133b611c9b565b73ffffffffffffffffffffffffffffffffffffffff166113596113b9565b73ffffffffffffffffffffffffffffffffffffffff16146113af576040517f08c379a00000000000000000000000000000000000000000000000000000000081526004016113a690613c3b565b60405180910390fd5b8060108190555050565b6000600a60009054906101000a900473ffffffffffffffffffffffffffffffffffffffff16905090565b6113eb611c9b565b73ffffffffffffffffffffffffffffffffffffffff166114096113b9565b73ffffffffffffffffffffffffffffffffffffffff161461145f576040517f08c379a000000000000000000000000000000000000000000000000000000000815260040161145690613c3b565b60405180910390fd5b80601160016101000a81548160ff02191690831515021790555050565b60606001805461148b90614004565b80601f01602080910402602001604051908101604052809291908181526020018280546114b790614004565b80156115045780601f106114d957610100808354040283529160200191611504565b820191906000526020600020905b8154815290600101906020018083116114e757829003601f168201915b5050505050905090565b6000611518610c3a565b9050601160009054906101000a900460ff161561156a576040517f08c379a000000000000000000000000000000000000000000000000000000000815260040161156190613adb565b60405180910390fd5b6000821161157757600080fd5b6010548211156115bc576040517f08c379a00000000000000000000000000000000000000000000000000000000081526004016115b390613b3b565b60405180910390fd5b600f5482826115cb9190613e39565b11156115d657600080fd5b6115de6113b9565b73ffffffffffffffffffffffffffffffffffffffff163373ffffffffffffffffffffffffffffffffffffffff16146116615781600e5461161e9190613ec0565b341015611660576040517f08c379a000000000000000000000000000000000000000000000000000000000815260040161165790613b7b565b60405180910390fd5b5b6000600190505b8281116116975761168433828461167f9190613e39565b6121c8565b808061168f90614067565b915050611668565b505050565b6116ae6116a7611c9b565b83836121e6565b5050565b6116c36116bd611c9b565b83611dc8565b611702576040517f08c379a00000000000000000000000000000000000000000000000000000000081526004016116f990613cbb565b60405180910390fd5b61170e84848484612353565b50505050565b600d805461172190614004565b80601f016020809104026020016040519081016040528092919081815260200182805461174d90614004565b801561179a5780601f1061176f5761010080835404028352916020019161179a565b820191906000526020600020905b81548152906001019060200180831161177d57829003601f168201915b505050505081565b60606117ad82611ca3565b6117ec576040517f08c379a00000000000000000000000000000000000000000000000000000000081526004016117e390613c7b565b60405180910390fd5b60001515601160019054906101000a900460ff161515141561189a57600c805461181590614004565b80601f016020809104026020016040519081016040528092919081815260200182805461184190614004565b801561188e5780601f106118635761010080835404028352916020019161188e565b820191906000526020600020905b81548152906001019060200180831161187157829003601f168201915b505050505090506118f6565b60006118a46123af565b905060008151116118c457604051806020016040528060008152506118f2565b806118ce846124d4565b600d6040516020016118e29392919061394f565b6040516020818303038152906040525b9150505b919050565b600f5481565b611909611c9b565b73ffffffffffffffffffffffffffffffffffffffff166119276113b9565b73ffffffffffffffffffffffffffffffffffffffff161461197d576040517f08c379a000000000000000000000000000000000000000000000000000000000815260040161197490613c3b565b60405180910390fd5b80600d9080519060200190611993929190613011565b5050565b6000600560008473ffffffffffffffffffffffffffffffffffffffff1673ffffffffffffffffffffffffffffffffffffffff16815260200190815260200160002060008373ffffffffffffffffffffffffffffffffffffffff1673ffffffffffffffffffffffffffffffffffffffff16815260200190815260200160002060009054906101000a900460ff16905092915050565b611a33611c9b565b73ffffffffffffffffffffffffffffffffffffffff16611a516113b9565b73ffffffffffffffffffffffffffffffffffffffff1614611aa7576040517f08c379a0000000000000000000000000000000000000000000000000000000008152600401611a9e90613c3b565b60405180910390fd5b80600c9080519060200190611abd929190613011565b5050565b611ac9611c9b565b73ffffffffffffffffffffffffffffffffffffffff16611ae76113b9565b73ffffffffffffffffffffffffffffffffffffffff1614611b3d576040517f08c379a0000000000000000000000000000000000000000000000000000000008152600401611b3490613c3b565b60405180910390fd5b600073ffffffffffffffffffffffffffffffffffffffff168173ffffffffffffffffffffffffffffffffffffffff161415611bad576040517f08c379a0000000000000000000000000000000000000000000000000000000008152600401611ba490613a9b565b60405180910390fd5b611bb681612102565b50565b60007f80ac58cd000000000000000000000000000000000000000000000000000000007bffffffffffffffffffffffffffffffffffffffffffffffffffffffff1916827bffffffffffffffffffffffffffffffffffffffffffffffffffffffff19161480611c8457507f5b5e139f000000000000000000000000000000000000000000000000000000007bffffffffffffffffffffffffffffffffffffffffffffffffffffffff1916827bffffffffffffffffffffffffffffffffffffffffffffffffffffffff1916145b80611c945750611c9382612681565b5b9050919050565b600033905090565b60008073ffffffffffffffffffffffffffffffffffffffff166002600084815260200190815260200160002060009054906101000a900473ffffffffffffffffffffffffffffffffffffffff1673ffffffffffffffffffffffffffffffffffffffff1614159050919050565b816004600083815260200190815260200160002060006101000a81548173ffffffffffffffffffffffffffffffffffffffff021916908373ffffffffffffffffffffffffffffffffffffffff160217905550808273ffffffffffffffffffffffffffffffffffffffff16611d8283611141565b73ffffffffffffffffffffffffffffffffffffffff167f8c5be1e5ebec7d5bd14f71427d1e84f3dd0314c0f7b2291e5b200ac8c7c3b92560405160405180910390a45050565b6000611dd382611ca3565b611e12576040517f08c379a0000000000000000000000000000000000000000000000000000000008152600401611e0990613b5b565b60405180910390fd5b6000611e1d83611141565b90508073ffffffffffffffffffffffffffffffffffffffff168473ffffffffffffffffffffffffffffffffffffffff161480611e8c57508373ffffffffffffffffffffffffffffffffffffffff16611e7484610a09565b73ffffffffffffffffffffffffffffffffffffffff16145b80611e9d5750611e9c8185611997565b5b91505092915050565b8273ffffffffffffffffffffffffffffffffffffffff16611ec682611141565b73ffffffffffffffffffffffffffffffffffffffff1614611f1c576040517f08c379a0000000000000000000000000000000000000000000000000000000008152600401611f1390613c5b565b60405180910390fd5b600073ffffffffffffffffffffffffffffffffffffffff168273ffffffffffffffffffffffffffffffffffffffff161415611f8c576040517f08c379a0000000000000000000000000000000000000000000000000000000008152600401611f8390613afb565b60405180910390fd5b611f978383836126eb565b611fa2600082611d0f565b6001600360008573ffffffffffffffffffffffffffffffffffffffff1673ffffffffffffffffffffffffffffffffffffffff1681526020019081526020016000206000828254611ff29190613f1a565b925050819055506001600360008473ffffffffffffffffffffffffffffffffffffffff1673ffffffffffffffffffffffffffffffffffffffff16815260200190815260200160002060008282546120499190613e39565b92505081905550816002600083815260200190815260200160002060006101000a81548173ffffffffffffffffffffffffffffffffffffffff021916908373ffffffffffffffffffffffffffffffffffffffff160217905550808273ffffffffffffffffffffffffffffffffffffffff168473ffffffffffffffffffffffffffffffffffffffff167fddf252ad1be2c89b69c2b068fc378daa952ba7f163c4a11628f55a4df523b3ef60405160405180910390a4505050565b6000600a60009054906101000a900473ffffffffffffffffffffffffffffffffffffffff16905081600a60006101000a81548173ffffffffffffffffffffffffffffffffffffffff021916908373ffffffffffffffffffffffffffffffffffffffff1602179055508173ffffffffffffffffffffffffffffffffffffffff168173ffffffffffffffffffffffffffffffffffffffff167f8be0079c531659141344cd1fd0a4f28419497f9722a3daafe3b4186f6b6457e060405160405180910390a35050565b6121e28282604051806020016040528060008152506127ff565b5050565b8173ffffffffffffffffffffffffffffffffffffffff168373ffffffffffffffffffffffffffffffffffffffff161415612255576040517f08c379a000000000000000000000000000000000000000000000000000000000815260040161224c90613b1b565b60405180910390fd5b80600560008573ffffffffffffffffffffffffffffffffffffffff1673ffffffffffffffffffffffffffffffffffffffff16815260200190815260200160002060008473ffffffffffffffffffffffffffffffffffffffff1673ffffffffffffffffffffffffffffffffffffffff16815260200190815260200160002060006101000a81548160ff0219169083151502179055508173ffffffffffffffffffffffffffffffffffffffff168373ffffffffffffffffffffffffffffffffffffffff167f17307eab39ab6107e8899845ad3d59bd9653f200f220920489ca2b5937696c31836040516123469190613a1e565b60405180910390a3505050565b61235e848484611ea6565b61236a8484848461285a565b6123a9576040517f08c379a00000000000000000000000000000000000000000000000000000000081526004016123a090613a7b565b60405180910390fd5b50505050565b6060612444600b80546123c190614004565b80601f01602080910402602001604051908101604052809291908181526020018280546123ed90614004565b801561243a5780601f1061240f5761010080835404028352916020019161243a565b820191906000526020600020905b81548152906001019060200180831161241d57829003601f168201915b50505050506129f1565b600b805461245190614004565b80601f016020809104026020016040519081016040528092919081815260200182805461247d90614004565b80156124ca5780601f1061249f576101008083540402835291602001916124ca565b820191906000526020600020905b8154815290600101906020018083116124ad57829003601f168201915b5050505050905090565b6060600082141561251c576040518060400160405280600181526020017f3000000000000000000000000000000000000000000000000000000000000000815250905061267c565b600082905060005b6000821461254e57808061253790614067565b915050600a826125479190613e8f565b9150612524565b60008167ffffffffffffffff811115612590577f4e487b7100000000000000000000000000000000000000000000000000000000600052604160045260246000fd5b6040519080825280601f01601f1916602001820160405280156125c25781602001600182028036833780820191505090505b5090505b60008514612675576001826125db9190613f1a565b9150600a856125ea91906140b0565b60306125f69190613e39565b60f81b818381518110612632577f4e487b7100000000000000000000000000000000000000000000000000000000600052603260045260246000fd5b60200101907effffffffffffffffffffffffffffffffffffffffffffffffffffffffffffff1916908160001a905350600a8561266e9190613e8f565b94506125c6565b8093505050505b919050565b60007f01ffc9a7000000000000000000000000000000000000000000000000000000007bffffffffffffffffffffffffffffffffffffffffffffffffffffffff1916827bffffffffffffffffffffffffffffffffffffffffffffffffffffffff1916149050919050565b6126f6838383612a8a565b600073ffffffffffffffffffffffffffffffffffffffff168373ffffffffffffffffffffffffffffffffffffffff1614156127395761273481612a8f565b612778565b8173ffffffffffffffffffffffffffffffffffffffff168373ffffffffffffffffffffffffffffffffffffffff1614612777576127768382612ad8565b5b5b600073ffffffffffffffffffffffffffffffffffffffff168273ffffffffffffffffffffffffffffffffffffffff1614156127bb576127b681612c45565b6127fa565b8273ffffffffffffffffffffffffffffffffffffffff168273ffffffffffffffffffffffffffffffffffffffff16146127f9576127f88282612d88565b5b5b505050565b6128098383612e07565b612816600084848461285a565b612855576040517f08c379a000000000000000000000000000000000000000000000000000000000815260040161284c90613a7b565b60405180910390fd5b505050565b600061287b8473ffffffffffffffffffffffffffffffffffffffff16612fd5565b156129e4578373ffffffffffffffffffffffffffffffffffffffff1663150b7a026128a4611c9b565b8786866040518563ffffffff1660e01b81526004016128c694939291906139b0565b602060405180830381600087803b1580156128e057600080fd5b505af192505050801561291157506040513d601f19601f8201168201806040525081019061290e91906133e6565b60015b612994573d8060008114612941576040519150601f19603f3d011682016040523d82523d6000602084013e612946565b606091505b5060008151141561298c576040517f08c379a000000000000000000000000000000000000000000000000000000000815260040161298390613a7b565b60405180910390fd5b805181602001fd5b63150b7a0260e01b7bffffffffffffffffffffffffffffffffffffffffffffffffffffffff1916817bffffffffffffffffffffffffffffffffffffffffffffffffffffffff1916149150506129e9565b600190505b949350505050565b612a8781604051602401612a059190613a39565b6040516020818303038152906040527f41304fac000000000000000000000000000000000000000000000000000000007bffffffffffffffffffffffffffffffffffffffffffffffffffffffff19166020820180517bffffffffffffffffffffffffffffffffffffffffffffffffffffffff8381831617835250505050612fe8565b50565b505050565b6008805490506009600083815260200190815260200160002081905550600881908060018154018082558091505060019003906000526020600020016000909190919091505550565b60006001612ae5846111f3565b612aef9190613f1a565b9050600060076000848152602001908152602001600020549050818114612bd4576000600660008673ffffffffffffffffffffffffffffffffffffffff1673ffffffffffffffffffffffffffffffffffffffff168152602001908152602001600020600084815260200190815260200160002054905080600660008773ffffffffffffffffffffffffffffffffffffffff1673ffffffffffffffffffffffffffffffffffffffff168152602001908152602001600020600084815260200190815260200160002081905550816007600083815260200190815260200160002081905550505b6007600084815260200190815260200160002060009055600660008573ffffffffffffffffffffffffffffffffffffffff1673ffffffffffffffffffffffffffffffffffffffff16815260200190815260200160002060008381526020019081526020016000206000905550505050565b60006001600880549050612c599190613f1a565b9050600060096000848152602001908152602001600020549050600060088381548110612caf577f4e487b7100000000000000000000000000000000000000000000000000000000600052603260045260246000fd5b906000526020600020015490508060088381548110612cf7577f4e487b7100000000000000000000000000000000000000000000000000000000600052603260045260246000fd5b906000526020600020018190555081600960008381526020019081526020016000208190555060096000858152602001908152602001600020600090556008805480612d6c577f4e487b7100000000000000000000000000000000000000000000000000000000600052603160045260246000fd5b6001900381819060005260206000200160009055905550505050565b6000612d93836111f3565b905081600660008573ffffffffffffffffffffffffffffffffffffffff1673ffffffffffffffffffffffffffffffffffffffff168152602001908152602001600020600083815260200190815260200160002081905550806007600084815260200190815260200160002081905550505050565b600073ffffffffffffffffffffffffffffffffffffffff168273ffffffffffffffffffffffffffffffffffffffff161415612e77576040517f08c379a0000000000000000000000000000000000000000000000000000000008152600401612e6e90613bfb565b60405180910390fd5b612e8081611ca3565b15612ec0576040517f08c379a0000000000000000000000000000000000000000000000000000000008152600401612eb790613abb565b60405180910390fd5b612ecc600083836126eb565b6001600360008473ffffffffffffffffffffffffffffffffffffffff1673ffffffffffffffffffffffffffffffffffffffff1681526020019081526020016000206000828254612f1c9190613e39565b92505081905550816002600083815260200190815260200160002060006101000a81548173ffffffffffffffffffffffffffffffffffffffff021916908373ffffffffffffffffffffffffffffffffffffffff160217905550808273ffffffffffffffffffffffffffffffffffffffff16600073ffffffffffffffffffffffffffffffffffffffff167fddf252ad1be2c89b69c2b068fc378daa952ba7f163c4a11628f55a4df523b3ef60405160405180910390a45050565b600080823b905060008111915050919050565b60008151905060006a636f6e736f6c652e6c6f679050602083016000808483855afa5050505050565b82805461301d90614004565b90600052602060002090601f01602090048101928261303f5760008555613086565b82601f1061305857805160ff1916838001178555613086565b82800160010185558215613086579182015b8281111561308557825182559160200191906001019061306a565b5b5090506130939190613097565b5090565b5b808211156130b0576000816000905550600101613098565b5090565b60006130c76130c284613d3b565b613d16565b9050828152602081018484840111156130df57600080fd5b6130ea848285613fc2565b509392505050565b600061310561310084613d6c565b613d16565b90508281526020810184848401111561311d57600080fd5b613128848285613fc2565b509392505050565b60008135905061313f81614748565b92915050565b6000813590506131548161475f565b92915050565b60008135905061316981614776565b92915050565b60008151905061317e81614776565b92915050565b600082601f83011261319557600080fd5b81356131a58482602086016130b4565b91505092915050565b600082601f8301126131bf57600080fd5b81356131cf8482602086016130f2565b91505092915050565b6000813590506131e78161478d565b92915050565b6000602082840312156131ff57600080fd5b600061320d84828501613130565b91505092915050565b6000806040838503121561322957600080fd5b600061323785828601613130565b925050602061324885828601613130565b9150509250929050565b60008060006060848603121561326757600080fd5b600061327586828701613130565b935050602061328686828701613130565b9250506040613297868287016131d8565b9150509250925092565b600080600080608085870312156132b757600080fd5b60006132c587828801613130565b94505060206132d687828801613130565b93505060406132e7878288016131d8565b925050606085013567ffffffffffffffff81111561330457600080fd5b61331087828801613184565b91505092959194509250565b6000806040838503121561332f57600080fd5b600061333d85828601613130565b925050602061334e85828601613145565b9150509250929050565b6000806040838503121561336b57600080fd5b600061337985828601613130565b925050602061338a858286016131d8565b9150509250929050565b6000602082840312156133a657600080fd5b60006133b484828501613145565b91505092915050565b6000602082840312156133cf57600080fd5b60006133dd8482850161315a565b91505092915050565b6000602082840312156133f857600080fd5b60006134068482850161316f565b91505092915050565b60006020828403121561342157600080fd5b600082013567ffffffffffffffff81111561343b57600080fd5b613447848285016131ae565b91505092915050565b60006020828403121561346257600080fd5b6000613470848285016131d8565b91505092915050565b60006134858383613931565b60208301905092915050565b61349a81613f4e565b82525050565b60006134ab82613dc2565b6134b58185613df0565b93506134c083613d9d565b8060005b838110156134f15781516134d88882613479565b97506134e383613de3565b9250506001810190506134c4565b5085935050505092915050565b61350781613f60565b82525050565b600061351882613dcd565b6135228185613e01565b9350613532818560208601613fd1565b61353b8161419d565b840191505092915050565b600061355182613dd8565b61355b8185613e1d565b935061356b818560208601613fd1565b6135748161419d565b840191505092915050565b600061358a82613dd8565b6135948185613e2e565b93506135a4818560208601613fd1565b80840191505092915050565b600081546135bd81614004565b6135c78186613e2e565b945060018216600081146135e257600181146135f357613626565b60ff19831686528186019350613626565b6135fc85613dad565b60005b8381101561361e578154818901526001820191506020810190506135ff565b838801955050505b50505092915050565b600061363c602b83613e1d565b9150613647826141ae565b604082019050919050565b600061365f603283613e1d565b915061366a826141fd565b604082019050919050565b6000613682602683613e1d565b915061368d8261424c565b604082019050919050565b60006136a5601c83613e1d565b91506136b08261429b565b602082019050919050565b60006136c8602083613e1d565b91506136d3826142c4565b602082019050919050565b60006136eb602483613e1d565b91506136f6826142ed565b604082019050919050565b600061370e601983613e1d565b91506137198261433c565b602082019050919050565b6000613731601883613e1d565b915061373c82614365565b602082019050919050565b6000613754602c83613e1d565b915061375f8261438e565b604082019050919050565b6000613777602c83613e1d565b9150613782826143dd565b604082019050919050565b600061379a603883613e1d565b91506137a58261442c565b604082019050919050565b60006137bd602a83613e1d565b91506137c88261447b565b604082019050919050565b60006137e0602983613e1d565b91506137eb826144ca565b604082019050919050565b6000613803602083613e1d565b915061380e82614519565b602082019050919050565b6000613826602c83613e1d565b915061383182614542565b604082019050919050565b6000613849602083613e1d565b915061385482614591565b602082019050919050565b600061386c602983613e1d565b9150613877826145ba565b604082019050919050565b600061388f602f83613e1d565b915061389a82614609565b604082019050919050565b60006138b2602183613e1d565b91506138bd82614658565b604082019050919050565b60006138d5600083613e12565b91506138e0826146a7565b600082019050919050565b60006138f8603183613e1d565b9150613903826146aa565b604082019050919050565b600061391b602c83613e1d565b9150613926826146f9565b604082019050919050565b61393a81613fb8565b82525050565b61394981613fb8565b82525050565b600061395b828661357f565b9150613967828561357f565b915061397382846135b0565b9150819050949350505050565b600061398b826138c8565b9150819050919050565b60006020820190506139aa6000830184613491565b92915050565b60006080820190506139c56000830187613491565b6139d26020830186613491565b6139df6040830185613940565b81810360608301526139f1818461350d565b905095945050505050565b60006020820190508181036000830152613a1681846134a0565b905092915050565b6000602082019050613a3360008301846134fe565b92915050565b60006020820190508181036000830152613a538184613546565b905092915050565b60006020820190508181036000830152613a748161362f565b9050919050565b60006020820190508181036000830152613a9481613652565b9050919050565b60006020820190508181036000830152613ab481613675565b9050919050565b60006020820190508181036000830152613ad481613698565b9050919050565b60006020820190508181036000830152613af4816136bb565b9050919050565b60006020820190508181036000830152613b14816136de565b9050919050565b60006020820190508181036000830152613b3481613701565b9050919050565b60006020820190508181036000830152613b5481613724565b9050919050565b60006020820190508181036000830152613b7481613747565b9050919050565b60006020820190508181036000830152613b948161376a565b9050919050565b60006020820190508181036000830152613bb48161378d565b9050919050565b60006020820190508181036000830152613bd4816137b0565b9050919050565b60006020820190508181036000830152613bf4816137d3565b9050919050565b60006020820190508181036000830152613c14816137f6565b9050919050565b60006020820190508181036000830152613c3481613819565b9050919050565b60006020820190508181036000830152613c548161383c565b9050919050565b60006020820190508181036000830152613c748161385f565b9050919050565b60006020820190508181036000830152613c9481613882565b9050919050565b60006020820190508181036000830152613cb4816138a5565b9050919050565b60006020820190508181036000830152613cd4816138eb565b9050919050565b60006020820190508181036000830152613cf48161390e565b9050919050565b6000602082019050613d106000830184613940565b92915050565b6000613d20613d31565b9050613d2c8282614036565b919050565b6000604051905090565b600067ffffffffffffffff821115613d5657613d5561416e565b5b613d5f8261419d565b9050602081019050919050565b600067ffffffffffffffff821115613d8757613d8661416e565b5b613d908261419d565b9050602081019050919050565b6000819050602082019050919050565b60008190508160005260206000209050919050565b600081519050919050565b600081519050919050565b600081519050919050565b6000602082019050919050565b600082825260208201905092915050565b600082825260208201905092915050565b600081905092915050565b600082825260208201905092915050565b600081905092915050565b6000613e4482613fb8565b9150613e4f83613fb8565b9250827fffffffffffffffffffffffffffffffffffffffffffffffffffffffffffffffff03821115613e8457613e836140e1565b5b828201905092915050565b6000613e9a82613fb8565b9150613ea583613fb8565b925082613eb557613eb4614110565b5b828204905092915050565b6000613ecb82613fb8565b9150613ed683613fb8565b9250817fffffffffffffffffffffffffffffffffffffffffffffffffffffffffffffffff0483118215151615613f0f57613f0e6140e1565b5b828202905092915050565b6000613f2582613fb8565b9150613f3083613fb8565b925082821015613f4357613f426140e1565b5b828203905092915050565b6000613f5982613f98565b9050919050565b60008115159050919050565b60007fffffffff0000000000000000000000000000000000000000000000000000000082169050919050565b600073ffffffffffffffffffffffffffffffffffffffff82169050919050565b6000819050919050565b82818337600083830152505050565b60005b83811015613fef578082015181840152602081019050613fd4565b83811115613ffe576000848401525b50505050565b6000600282049050600182168061401c57607f821691505b602082108114156140305761402f61413f565b5b50919050565b61403f8261419d565b810181811067ffffffffffffffff8211171561405e5761405d61416e565b5b80604052505050565b600061407282613fb8565b91507fffffffffffffffffffffffffffffffffffffffffffffffffffffffffffffffff8214156140a5576140a46140e1565b5b600182019050919050565b60006140bb82613fb8565b91506140c683613fb8565b9250826140d6576140d5614110565b5b828206905092915050565b7f4e487b7100000000000000000000000000000000000000000000000000000000600052601160045260246000fd5b7f4e487b7100000000000000000000000000000000000000000000000000000000600052601260045260246000fd5b7f4e487b7100000000000000000000000000000000000000000000000000000000600052602260045260246000fd5b7f4e487b7100000000000000000000000000000000000000000000000000000000600052604160045260246000fd5b6000601f19601f8301169050919050565b7f455243373231456e756d657261626c653a206f776e657220696e646578206f7560008201527f74206f6620626f756e6473000000000000000000000000000000000000000000602082015250565b7f4552433732313a207472616e7366657220746f206e6f6e20455243373231526560008201527f63656976657220696d706c656d656e7465720000000000000000000000000000602082015250565b7f4f776e61626c653a206e6577206f776e657220697320746865207a65726f206160008201527f6464726573730000000000000000000000000000000000000000000000000000602082015250565b7f4552433732313a20746f6b656e20616c7265616479206d696e74656400000000600082015250565b7f4d696e74696e672066756e6374696f6e616c6974792069732070617573656421600082015250565b7f4552433732313a207472616e7366657220746f20746865207a65726f2061646460008201527f7265737300000000000000000000000000000000000000000000000000000000602082015250565b7f4552433732313a20617070726f766520746f2063616c6c657200000000000000600082015250565b7f4d696e7420616d6f756e74206973206d6178696d756d20200000000000000000600082015250565b7f4552433732313a206f70657261746f7220717565727920666f72206e6f6e657860008201527f697374656e7420746f6b656e0000000000000000000000000000000000000000602082015250565b7f4e6f7420656e6f7567682062616c616e636520746f206d696e742e20506c656160008201527f73652074727920616761696e0000000000000000000000000000000000000000602082015250565b7f4552433732313a20617070726f76652063616c6c6572206973206e6f74206f7760008201527f6e6572206e6f7220617070726f76656420666f7220616c6c0000000000000000602082015250565b7f4552433732313a2062616c616e636520717565727920666f7220746865207a6560008201527f726f206164647265737300000000000000000000000000000000000000000000602082015250565b7f4552433732313a206f776e657220717565727920666f72206e6f6e657869737460008201527f656e7420746f6b656e0000000000000000000000000000000000000000000000602082015250565b7f4552433732313a206d696e7420746f20746865207a65726f2061646472657373600082015250565b7f4552433732313a20617070726f76656420717565727920666f72206e6f6e657860008201527f697374656e7420746f6b656e0000000000000000000000000000000000000000602082015250565b7f4f776e61626c653a2063616c6c6572206973206e6f7420746865206f776e6572600082015250565b7f4552433732313a207472616e73666572206f6620746f6b656e2074686174206960008201527f73206e6f74206f776e0000000000000000000000000000000000000000000000602082015250565b7f4552433732314d657461646174613a2055524920717565727920666f72206e6f60008201527f6e6578697374656e7420746f6b656e0000000000000000000000000000000000602082015250565b7f4552433732313a20617070726f76616c20746f2063757272656e74206f776e6560008201527f7200000000000000000000000000000000000000000000000000000000000000602082015250565b50565b7f4552433732313a207472616e736665722063616c6c6572206973206e6f74206f60008201527f776e6572206e6f7220617070726f766564000000000000000000000000000000602082015250565b7f455243373231456e756d657261626c653a20676c6f62616c20696e646578206f60008201527f7574206f6620626f756e64730000000000000000000000000000000000000000602082015250565b61475181613f4e565b811461475c57600080fd5b50565b61476881613f60565b811461477357600080fd5b50565b61477f81613f6c565b811461478a57600080fd5b50565b61479681613fb8565b81146147a157600080fd5b5056fea2646970667358221220af8786a84f4cd11fa36e035c2477511a435c9338c69468510fcf518a2c4b8b9264736f6c63430008040033",
  "linkReferences": {},
  "deployedLinkReferences": {}
}